:020000040800F2
:10000000000001205D040008AD040008AD040008F4
:10001000AD040008AD040008AD04000800000000B5
:10002000000000000000000000000000AD04000817
:10003000AD04000800000000AD040008AD04000895
:1000400000000000AD040008AD040008AD04000885
:10005000AD040008AD040008AD040008AD040008BC
:10006000AD040008AD040008AD040008AD040008AC
:10007000AD040008AD040008AD040008AD0400089C
:10008000AD040008AD040008AD0400080000000045
:10009000000000000000000000000000AD040008A7
:1000A000AD040008AD040008AD040008AD0400086C
:1000B000AD040008AD040008AD040008AD0400085C
:1000C000AD040008AD040008AD040008AD0400084C
:1000D000AD040008AD040008AD04000800000000F5
:1000E000AD040008AD040008AD04000800000000E5
:1000F000000000000000000000000000AD04000847
:1001000000000000AD040008AD040008AD040008C4
:1001100000000000000000000000000000000000DF
:10012000AD040008AD040008AD040008AD040008EB
:10013000AD04000800000000000000000000000006
:10014000000000000000000000000000AD040008F6
:10015000AD040008AD040008AD040008AD040008BB
:10016000AD040008AD04000800000000000000001D
:10017000000000000000000000000000000000007F
:10018000000000000000000000000000000000006F
:04019000AD040008B2
:1001940010B5054C237833B9044B13B10448AFF3BD
:1001A40000800123237010BD000000200000000027
:1001B400F804000808B5034B1BB103490348AFF327
:1001C400008008BD0000000004000020F8040008BE
:1001D40080B400AF474B1B68464A43F48033136036
:1001E40000BF444B1B6803F40033002BF9D0424B8F
:1001F4001B68414A43F4E06313603F4B1B683E4A6B
:1002040043F0020313603B4B1B6C3A4A43F08053A8
:1002140013643A4B1B68394A43F400431360354B6B
:10022400344A9B689360334B9B68324A43F480534F
:100234009360304B2F4A9B6893602E4B5B682D4A2A
:1002440043F0190353602B4B5B682A4A23F02603BF
:100254005360284B5B68274A43F4A8435360254BFB
:100264005B68244A23F42F535360224B5B68214A72
:1002740023F4403353601F4B4FF480029A601D4BAC
:100284001B681C4A43F08073136000BF194B1B6842
:1002940003F00073002BF9D0164B9B68154A43F00A
:1002A4000203936000BF134B9B6803F00C03082BFD
:1002B400F9D1104B1B6C0F4A43F008031364104B25
:1002C40053229A620E4B4FF6FF72DA620C4B1B6894
:1002D4000B4A43F00103136000BF094B1B6903F091
:1002E4000103002BF9D000BF00BFBD465DF8047BBD
:1002F400704700BF00380240003C024000700040DC
:10030400000C004080B500AF00F004F800F048F89D
:1003140000BFFDE780B500AFFFF75AFF1E4B1B6C13
:100324001D4A43F0010313641B4B1B6B1A4A43F031
:1003340001031363194B1B68184A43F0020313604B
:10034400164B1B68154A43F008031360134B1B68D4
:10035400124A43F020031360104B1B680F4A43F00A
:10036400800313600D4B1B6A0C4A43F001031362B4
:100374000A4B1B6A094A23F002031362074B1B6AE8
:10038400064A23F004031362044B1B6A034A23F056
:100394000803136200BF80BD003802400000024021
:1003A40080B400AF4FF080439B694FF0804223F04C
:1003B400030393614FF080431B6A4FF0804223F0A4
:1003C400020313624FF080439B694FF0804243F075
:1003D400600393614FF0804353229A624FF080434D
:1003E4006322DA624FF0804332225A634FF0804333
:1003F4009B694FF0804243F0080393614FF08043C0
:100404001B684FF0804243F0800313604FF0804339
:100414001B684FF0804223F0600313604FF0804369
:100424001B684FF0804223F0100313604FF08043A9
:100434001B6A4FF0804243F0010313624FF0804384
:100444001B684FF0804243F00103136000BFBD46B8
:100454005DF8047B704700000D488546AFF30080CB
:100464000C480D490D4A002302E0D458C45004330B
:10047400C4188C42F9D30A4A0A4C002301E01360E1
:100484000432A242FBD300F011F8FFF73BFFFEE772
:1004940000000120000000200000002018050008D2
:1004A400000000201C000020FEE7000070B50D4D88
:1004B4000D4C641BA4100026A64209D10B4D0C4C14
:1004C40000F018F8641BA4100026A64205D170BDE4
:1004D40055F8043B98470136EEE755F8043B984736
:1004E4000136F2E7100500081005000810050008A1
:1004F40014050008F8B500BFF8BC08BC9E46704758
:0C050400F8B500BFF8BC08BC9E4670476C
:04051000B901000825
:040514009501000845
:040000050800045D8E
:00000001FF
